{
  "transactions": [
    {
      "hash": "0x83b8a513702d763ace285ad8d49723cde6ea297c87b75d983e8b72351ecc39fe",
      "transactionType": "CALL",
      "contractName": null,
      "contractAddress": "0x779877a7b0d9e8603169ddbd7836e478b4624789",
      "function": "transferAndCall(address,uint256,bytes)",
      "arguments": [
        "0x9DdfaCa8183c41ad55329BdeeD9F6A8d53168B1B",
        "3000000000000000000",
        "0x5fd4f5fe38e7da3fa0abfa272bcb70f19cd4235cb23f9b5df559db5cc37e20db"
      ],
      "transaction": {
        "from": "0x94a7a79c68a96f2550727f28dd9fe9e396a5c080",
        "to": "0x779877a7b0d9e8603169ddbd7836e478b4624789",
        "gas": "0x14cbb",
        "value": "0x0",
        "input": "0x4000aea00000000000000000000000009ddfaca8183c41ad55329bdeed9f6a8d53168b1b00000000000000000000000000000000000000000000000029a2241af62c0000000000000000000000000000000000000000000000000000000000000000006000000000000000000000000000000000000000000000000000000000000000205fd4f5fe38e7da3fa0abfa272bcb70f19cd4235cb23f9b5df559db5cc37e20db",
        "nonce": "0x4",
        "chainId": "0xaa36a7"
      },
      "additionalContracts": [],
      "isFixedGasLimit": false
    }
  ],
  "receipts": [
    {
      "status": "0x1",
      "cumulativeGasUsed": "0x8acf9a",
      "logs": [
        {
          "address": "0x779877a7b0d9e8603169ddbd7836e478b4624789",
          "topics": [
            "0xddf252ad1be2c89b69c2b068fc378daa952ba7f163c4a11628f55a4df523b3ef",
            "0x00000000000000000000000094a7a79c68a96f2550727f28dd9fe9e396a5c080",
            "0x0000000000000000000000009ddfaca8183c41ad55329bdeed9f6a8d53168b1b"
          ],
          "data": "0x00000000000000000000000000000000000000000000000029a2241af62c0000",
          "blockHash": "0xa83a06ce30fb5232c9cea77ae52130a904f28fe6c2004386abac606392a31e7f",
          "blockNumber": "0x7c6766",
          "blockTimestamp": "0x6803eb78",
          "transactionHash": "0x83b8a513702d763ace285ad8d49723cde6ea297c87b75d983e8b72351ecc39fe",
          "transactionIndex": "0x69",
          "logIndex": "0x95",
          "removed": false
        },
        {
          "address": "0x779877a7b0d9e8603169ddbd7836e478b4624789",
          "topics": [
            "0xe19260aff97b920c7df27010903aeb9c8d2be5d310a2c67824cf3f15396e4c16",
            "0x00000000000000000000000094a7a79c68a96f2550727f28dd9fe9e396a5c080",
            "0x0000000000000000000000009ddfaca8183c41ad55329bdeed9f6a8d53168b1b"
          ],
          "data": "0x00000000000000000000000000000000000000000000000029a2241af62c0000000000000000000000000000000000000000000000000000000000000000004000000000000000000000000000000000000000000000000000000000000000205fd4f5fe38e7da3fa0abfa272bcb70f19cd4235cb23f9b5df559db5cc37e20db",
          "blockHash": "0xa83a06ce30fb5232c9cea77ae52130a904f28fe6c2004386abac606392a31e7f",
          "blockNumber": "0x7c6766",
          "blockTimestamp": "0x6803eb78",
          "transactionHash": "0x83b8a513702d763ace285ad8d49723cde6ea297c87b75d983e8b72351ecc39fe",
          "transactionIndex": "0x69",
          "logIndex": "0x96",
          "removed": false
        },
        {
          "address": "0x9ddfaca8183c41ad55329bdeed9f6a8d53168b1b",
          "topics": [
            "0x1ced9348ff549fceab2ac57cd3a9de38edaaab274b725ee82c23e8fc8c4eec7a",
            "0x5fd4f5fe38e7da3fa0abfa272bcb70f19cd4235cb23f9b5df559db5cc37e20db"
          ],
          "data": "0x00000000000000000000000000000000000000000000000029a2241af62c000000000000000000000000000000000000000000000000000053444835ec580000",
          "blockHash": "0xa83a06ce30fb5232c9cea77ae52130a904f28fe6c2004386abac606392a31e7f",
          "blockNumber": "0x7c6766",
          "blockTimestamp": "0x6803eb78",
          "transactionHash": "0x83b8a513702d763ace285ad8d49723cde6ea297c87b75d983e8b72351ecc39fe",
          "transactionIndex": "0x69",
          "logIndex": "0x97",
          "removed": false
        }
      ],
      "logsBloom": "0x00000004000000000000000000000000000000000020000000000000020000000000000000000000000000000000000000000000000000000000000000000000008000000000000000000008000000000000000000000000000020000120000108000000000000000000000000000000000000000000000000000010000040000000000000000000000000010000800000000820000000000000000000000000000000000000000000000000010000100000000000000000000004000000000000000202000000000000000000000000000000000000000100000000000000000010000000000000800000000000000000000000000000000000000000000000",
      "type": "0x2",
      "transactionHash": "0x83b8a513702d763ace285ad8d49723cde6ea297c87b75d983e8b72351ecc39fe",
      "transactionIndex": "0x69",
      "blockHash": "0xa83a06ce30fb5232c9cea77ae52130a904f28fe6c2004386abac606392a31e7f",
      "blockNumber": "0x7c6766",
      "gasUsed": "0xf0e5",
      "effectiveGasPrice": "0xf424e",
      "from": "0x94a7a79c68a96f2550727f28dd9fe9e396a5c080",
      "to": "0x779877a7b0d9e8603169ddbd7836e478b4624789",
      "contractAddress": null
    }
  ],
  "libraries": [],
  "pending": [],
  "returns": {},
  "timestamp": 1745087353,
  "chain": 11155111,
  "commit": "a0fed2b"
}