{
  "transactions": [
    {
      "hash": "0x1149084207eb7cafd8c5436086c50d08cf91e204ac06b809d8b8c468f416ad5e",
      "transactionType": "CALL",
      "contractName": null,
      "contractAddress": "0x779877a7b0d9e8603169ddbd7836e478b4624789",
      "function": "transferAndCall(address,uint256,bytes)",
      "arguments": [
        "0x9DdfaCa8183c41ad55329BdeeD9F6A8d53168B1B",
        "3000000000000000000",
        "0x5fd4f5fe38e7da3fa0abfa272bcb70f19cd4235cb23f9b5df559db5cc37e20db"
      ],
      "transaction": {
        "from": "0x94a7a79c68a96f2550727f28dd9fe9e396a5c080",
        "to": "0x779877a7b0d9e8603169ddbd7836e478b4624789",
        "gas": "0x1c1ff",
        "value": "0x0",
        "input": "0x4000aea00000000000000000000000009ddfaca8183c41ad55329bdeed9f6a8d53168b1b00000000000000000000000000000000000000000000000029a2241af62c0000000000000000000000000000000000000000000000000000000000000000006000000000000000000000000000000000000000000000000000000000000000205fd4f5fe38e7da3fa0abfa272bcb70f19cd4235cb23f9b5df559db5cc37e20db",
        "nonce": "0x3",
        "chainId": "0xaa36a7"
      },
      "additionalContracts": [],
      "isFixedGasLimit": false
    }
  ],
  "receipts": [
    {
      "status": "0x1",
      "cumulativeGasUsed": "0x4ef3be",
      "logs": [
        {
          "address": "0x779877a7b0d9e8603169ddbd7836e478b4624789",
          "topics": [
            "0xddf252ad1be2c89b69c2b068fc378daa952ba7f163c4a11628f55a4df523b3ef",
            "0x00000000000000000000000094a7a79c68a96f2550727f28dd9fe9e396a5c080",
            "0x0000000000000000000000009ddfaca8183c41ad55329bdeed9f6a8d53168b1b"
          ],
          "data": "0x00000000000000000000000000000000000000000000000029a2241af62c0000",
          "blockHash": "0x27538034af144b6dfe62cd66bee7167669078e3e3c3c688794269a8591eb2741",
          "blockNumber": "0x7c4c30",
          "blockTimestamp": "0x6802a418",
          "transactionHash": "0x1149084207eb7cafd8c5436086c50d08cf91e204ac06b809d8b8c468f416ad5e",
          "transactionIndex": "0x2e",
          "logIndex": "0x4f",
          "removed": false
        },
        {
          "address": "0x779877a7b0d9e8603169ddbd7836e478b4624789",
          "topics": [
            "0xe19260aff97b920c7df27010903aeb9c8d2be5d310a2c67824cf3f15396e4c16",
            "0x00000000000000000000000094a7a79c68a96f2550727f28dd9fe9e396a5c080",
            "0x0000000000000000000000009ddfaca8183c41ad55329bdeed9f6a8d53168b1b"
          ],
          "data": "0x00000000000000000000000000000000000000000000000029a2241af62c0000000000000000000000000000000000000000000000000000000000000000004000000000000000000000000000000000000000000000000000000000000000205fd4f5fe38e7da3fa0abfa272bcb70f19cd4235cb23f9b5df559db5cc37e20db",
          "blockHash": "0x27538034af144b6dfe62cd66bee7167669078e3e3c3c688794269a8591eb2741",
          "blockNumber": "0x7c4c30",
          "blockTimestamp": "0x6802a418",
          "transactionHash": "0x1149084207eb7cafd8c5436086c50d08cf91e204ac06b809d8b8c468f416ad5e",
          "transactionIndex": "0x2e",
          "logIndex": "0x50",
          "removed": false
        },
        {
          "address": "0x9ddfaca8183c41ad55329bdeed9f6a8d53168b1b",
          "topics": [
            "0x1ced9348ff549fceab2ac57cd3a9de38edaaab274b725ee82c23e8fc8c4eec7a",
            "0x5fd4f5fe38e7da3fa0abfa272bcb70f19cd4235cb23f9b5df559db5cc37e20db"
          ],
          "data": "0x000000000000000000000000000000000000000000000000000000000000000000000000000000000000000000000000000000000000000029a2241af62c0000",
          "blockHash": "0x27538034af144b6dfe62cd66bee7167669078e3e3c3c688794269a8591eb2741",
          "blockNumber": "0x7c4c30",
          "blockTimestamp": "0x6802a418",
          "transactionHash": "0x1149084207eb7cafd8c5436086c50d08cf91e204ac06b809d8b8c468f416ad5e",
          "transactionIndex": "0x2e",
          "logIndex": "0x51",
          "removed": false
        }
      ],
      "logsBloom": "0x00000004000000000000000000000000000000000020000000000000020000000000000000000000000000000000000000000000000000000000000000000000008000000000000000000008000000000000000000000000000020000120000108000000000000000000000000000000000000000000000000000010000040000000000000000000000000010000800000000820000000000000000000000000000000000000000000000000010000100000000000000000000004000000000000000202000000000000000000000000000000000000000100000000000000000010000000000000800000000000000000000000000000000000000000000000",
      "type": "0x2",
      "transactionHash": "0x1149084207eb7cafd8c5436086c50d08cf91e204ac06b809d8b8c468f416ad5e",
      "transactionIndex": "0x2e",
      "blockHash": "0x27538034af144b6dfe62cd66bee7167669078e3e3c3c688794269a8591eb2741",
      "blockNumber": "0x7c4c30",
      "gasUsed": "0x133b1",
      "effectiveGasPrice": "0xf4764",
      "from": "0x94a7a79c68a96f2550727f28dd9fe9e396a5c080",
      "to": "0x779877a7b0d9e8603169ddbd7836e478b4624789",
      "contractAddress": null
    }
  ],
  "libraries": [],
  "pending": [],
  "returns": {},
  "timestamp": 1745003543,
  "chain": 11155111,
  "commit": "eb1a356"
}